{
  "_format": "hh-sol-artifact-1",
  "contractName": "TodoList",
  "sourceName": "contracts/TodoList.sol",
  "abi": [
    {
      "inputs": [],
      "stateMutability": "nonpayable",
      "type": "constructor"
    },
    {
      "anonymous": false,
      "inputs": [
        {
          "indexed": false,
          "internalType": "uint256",
          "name": "id",
          "type": "uint256"
        },
        {
          "indexed": false,
          "internalType": "string",
          "name": "content",
          "type": "string"
        }
      ],
      "name": "Created",
      "type": "event"
    },
    {
      "anonymous": false,
      "inputs": [
        {
          "indexed": false,
          "internalType": "uint256",
          "name": "id",
          "type": "uint256"
        },
        {
          "indexed": false,
          "internalType": "bool",
          "name": "completed",
          "type": "bool"
        }
      ],
      "name": "UpdateIsCompleted",
      "type": "event"
    },
    {
      "inputs": [
        {
          "internalType": "string",
          "name": "_content",
          "type": "string"
        }
      ],
      "name": "createTask",
      "outputs": [],
      "stateMutability": "nonpayable",
      "type": "function"
    },
    {
      "inputs": [],
      "name": "taskCount",
      "outputs": [
        {
          "internalType": "uint256",
          "name": "",
          "type": "uint256"
        }
      ],
      "stateMutability": "view",
      "type": "function"
    },
    {
      "inputs": [
        {
          "internalType": "uint256",
          "name": "",
          "type": "uint256"
        }
      ],
      "name": "tasks",
      "outputs": [
        {
          "internalType": "string",
          "name": "content",
          "type": "string"
        },
        {
          "internalType": "bool",
          "name": "isCompleted",
          "type": "bool"
        }
      ],
      "stateMutability": "view",
      "type": "function"
    },
    {
      "inputs": [
        {
          "internalType": "uint256",
          "name": "_id",
          "type": "uint256"
        }
      ],
      "name": "toggleIsCompleted",
      "outputs": [],
      "stateMutability": "nonpayable",
      "type": "function"
    }
  ],
  "bytecode": "0x6080604052600080553480156200001557600080fd5b506200005c6040518060400160405280600c81526020017f496e697469616c204461746100000000000000000000000000000000000000008152506200006260201b60201c565b620005d3565b60008081548092919062000076906200015b565b919050555060405180604001604052808281526020016000151581525060016000805481526020019081526020016000206000820151816000019081620000be919062000418565b5060208201518160010160006101000a81548160ff0219169083151502179055509050507f8304eea71399999aba5c87c24c7fbc7cb6fce2f02b9b5983fda2636b86df8d0a60005482604051620001179291906200059f565b60405180910390a150565b7f4e487b7100000000000000000000000000000000000000000000000000000000600052601160045260246000fd5b6000819050919050565b6000620001688262000151565b91507fffffffffffffffffffffffffffffffffffffffffffffffffffffffffffffffff82036200019d576200019c62000122565b5b600182019050919050565b600081519050919050565b7f4e487b7100000000000000000000000000000000000000000000000000000000600052604160045260246000fd5b7f4e487b7100000000000000000000000000000000000000000000000000000000600052602260045260246000fd5b600060028204905060018216806200022a57607f821691505b60208210810362000240576200023f620001e2565b5b50919050565b60008190508160005260206000209050919050565b60006020601f8301049050919050565b600082821b905092915050565b600060088302620002aa7fffffffffffffffffffffffffffffffffffffffffffffffffffffffffffffffff826200026b565b620002b686836200026b565b95508019841693508086168417925050509392505050565b6000819050919050565b6000620002f9620002f3620002ed8462000151565b620002ce565b62000151565b9050919050565b6000819050919050565b6200031583620002d8565b6200032d620003248262000300565b84845462000278565b825550505050565b600090565b6200034462000335565b620003518184846200030a565b505050565b5b8181101562000379576200036d6000826200033a565b60018101905062000357565b5050565b601f821115620003c857620003928162000246565b6200039d846200025b565b81016020851015620003ad578190505b620003c5620003bc856200025b565b83018262000356565b50505b505050565b600082821c905092915050565b6000620003ed60001984600802620003cd565b1980831691505092915050565b6000620004088383620003da565b9150826002028217905092915050565b6200042382620001a8565b67ffffffffffffffff8111156200043f576200043e620001b3565b5b6200044b825462000211565b620004588282856200037d565b600060209050601f8311600181146200049057600084156200047b578287015190505b620004878582620003fa565b865550620004f7565b601f198416620004a08662000246565b60005b82811015620004ca57848901518255600182019150602085019450602081019050620004a3565b86831015620004ea5784890151620004e6601f891682620003da565b8355505b6001600288020188555050505b505050505050565b6200050a8162000151565b82525050565b600082825260208201905092915050565b60005b838110156200054157808201518184015260208101905062000524565b60008484015250505050565b6000601f19601f8301169050919050565b60006200056b82620001a8565b62000577818562000510565b93506200058981856020860162000521565b62000594816200054d565b840191505092915050565b6000604082019050620005b66000830185620004ff565b8181036020830152620005ca81846200055e565b90509392505050565b610aa180620005e36000396000f3fe608060405234801561001057600080fd5b506004361061004c5760003560e01c8063111002aa146100515780638d9776721461006d578063b6cb58a51461009e578063bc9639b2146100bc575b600080fd5b61006b6004803603810190610066919061051d565b6100d8565b005b6100876004803603810190610082919061059c565b610192565b604051610095929190610663565b60405180910390f35b6100a661024b565b6040516100b391906106a2565b60405180910390f35b6100d660048036038101906100d1919061059c565b610251565b005b6000808154809291906100ea906106ec565b9190505550604051806040016040528082815260200160001515815250600160008054815260200190815260200160002060008201518160000190816101309190610940565b5060208201518160010160006101000a81548160ff0219169083151502179055509050507f8304eea71399999aba5c87c24c7fbc7cb6fce2f02b9b5983fda2636b86df8d0a60005482604051610187929190610a12565b60405180910390a150565b60016020528060005260406000206000915090508060000180546101b590610763565b80601f01602080910402602001604051908101604052809291908181526020018280546101e190610763565b801561022e5780601f106102035761010080835404028352916020019161022e565b820191906000526020600020905b81548152906001019060200180831161021157829003601f168201915b5050505050908060010160009054906101000a900460ff16905082565b60005481565b60006001600083815260200190815260200160002060405180604001604052908160008201805461028190610763565b80601f01602080910402602001604051908101604052809291908181526020018280546102ad90610763565b80156102fa5780601f106102cf576101008083540402835291602001916102fa565b820191906000526020600020905b8154815290600101906020018083116102dd57829003601f168201915b505050505081526020016001820160009054906101000a900460ff16151515158152505090508060200151158160200190151590811515815250508060016000848152602001908152602001600020600082015181600001908161035e9190610940565b5060208201518160010160006101000a81548160ff0219169083151502179055509050507f01d9ba3e72a1f5f08aa0aa326ff2ff44d2db29def801ad52d050fb5ea06d4c848282602001516040516103b7929190610a42565b60405180910390a15050565b6000604051905090565b600080fd5b600080fd5b600080fd5b600080fd5b6000601f19601f8301169050919050565b7f4e487b7100000000000000000000000000000000000000000000000000000000600052604160045260246000fd5b61042a826103e1565b810181811067ffffffffffffffff82111715610449576104486103f2565b5b80604052505050565b600061045c6103c3565b90506104688282610421565b919050565b600067ffffffffffffffff821115610488576104876103f2565b5b610491826103e1565b9050602081019050919050565b82818337600083830152505050565b60006104c06104bb8461046d565b610452565b9050828152602081018484840111156104dc576104db6103dc565b5b6104e784828561049e565b509392505050565b600082601f830112610504576105036103d7565b5b81356105148482602086016104ad565b91505092915050565b600060208284031215610533576105326103cd565b5b600082013567ffffffffffffffff811115610551576105506103d2565b5b61055d848285016104ef565b91505092915050565b6000819050919050565b61057981610566565b811461058457600080fd5b50565b60008135905061059681610570565b92915050565b6000602082840312156105b2576105b16103cd565b5b60006105c084828501610587565b91505092915050565b600081519050919050565b600082825260208201905092915050565b60005b838110156106035780820151818401526020810190506105e8565b60008484015250505050565b600061061a826105c9565b61062481856105d4565b93506106348185602086016105e5565b61063d816103e1565b840191505092915050565b60008115159050919050565b61065d81610648565b82525050565b6000604082019050818103600083015261067d818561060f565b905061068c6020830184610654565b9392505050565b61069c81610566565b82525050565b60006020820190506106b76000830184610693565b92915050565b7f4e487b7100000000000000000000000000000000000000000000000000000000600052601160045260246000fd5b60006106f782610566565b91507fffffffffffffffffffffffffffffffffffffffffffffffffffffffffffffffff8203610729576107286106bd565b5b600182019050919050565b7f4e487b7100000000000000000000000000000000000000000000000000000000600052602260045260246000fd5b6000600282049050600182168061077b57607f821691505b60208210810361078e5761078d610734565b5b50919050565b60008190508160005260206000209050919050565b60006020601f8301049050919050565b600082821b905092915050565b6000600883026107f67fffffffffffffffffffffffffffffffffffffffffffffffffffffffffffffffff826107b9565b61080086836107b9565b95508019841693508086168417925050509392505050565b6000819050919050565b600061083d61083861083384610566565b610818565b610566565b9050919050565b6000819050919050565b61085783610822565b61086b61086382610844565b8484546107c6565b825550505050565b600090565b610880610873565b61088b81848461084e565b505050565b5b818110156108af576108a4600082610878565b600181019050610891565b5050565b601f8211156108f4576108c581610794565b6108ce846107a9565b810160208510156108dd578190505b6108f16108e9856107a9565b830182610890565b50505b505050565b600082821c905092915050565b6000610917600019846008026108f9565b1980831691505092915050565b60006109308383610906565b9150826002028217905092915050565b610949826105c9565b67ffffffffffffffff811115610962576109616103f2565b5b61096c8254610763565b6109778282856108b3565b600060209050601f8311600181146109aa5760008415610998578287015190505b6109a28582610924565b865550610a0a565b601f1984166109b886610794565b60005b828110156109e0578489015182556001820191506020850194506020810190506109bb565b868310156109fd57848901516109f9601f891682610906565b8355505b6001600288020188555050505b505050505050565b6000604082019050610a276000830185610693565b8181036020830152610a39818461060f565b90509392505050565b6000604082019050610a576000830185610693565b610a646020830184610654565b939250505056fea26469706673582212201add18d2dd9b7830b1fbed715ad515d7b564c1469ef87b87040f5a947264e9de64736f6c63430008110033",
  "linkReferences": {},
  "deployedLinkReferences": {}
}